{
  "contractName": "Counter",
  "abi": [
    {
      "inputs": [
        {
          "internalType": "uint256",
          "name": "_count",
          "type": "uint256"
        }
      ],
      "stateMutability": "nonpayable",
      "type": "constructor"
    },
    {
      "inputs": [],
      "name": "getCount",
      "outputs": [
        {
          "internalType": "uint256",
          "name": "",
          "type": "uint256"
        }
      ],
      "stateMutability": "view",
      "type": "function",
      "constant": true
    },
    {
      "inputs": [
        {
          "internalType": "uint256",
          "name": "x",
          "type": "uint256"
        }
      ],
      "name": "add",
      "outputs": [],
      "stateMutability": "nonpayable",
      "type": "function"
    }
  ],
  "bytecode": "0x608060405234801561001057600080fd5b5060405161027a38038061027a8339818101604052810190610032919061007a565b80600081905550506100a7565b600080fd5b6000819050919050565b61005781610044565b811461006257600080fd5b50565b6000815190506100748161004e565b92915050565b6000602082840312156100905761008f61003f565b5b600061009e84828501610065565b91505092915050565b6101c4806100b66000396000f3fe608060405234801561001057600080fd5b50600436106100365760003560e01c80631003e2d21461003b578063a87d942c14610057575b600080fd5b610055600480360381019061005091906100d4565b610075565b005b61005f610090565b60405161006c9190610110565b60405180910390f35b80600080828254610086919061015a565b9250508190555050565b60008054905090565b600080fd5b6000819050919050565b6100b18161009e565b81146100bc57600080fd5b50565b6000813590506100ce816100a8565b92915050565b6000602082840312156100ea576100e9610099565b5b60006100f8848285016100bf565b91505092915050565b61010a8161009e565b82525050565b60006020820190506101256000830184610101565b92915050565b7f4e487b7100000000000000000000000000000000000000000000000000000000600052601160045260246000fd5b60006101658261009e565b91506101708361009e565b92508282019050808211156101885761018761012b565b5b9291505056fea2646970667358221220934b6e32e3d92305da7526f14c7c633298a07fc20edae886e5a42f0b26267ecd64736f6c63430008130033",
  "immutableReferences": {},
  "source": "pragma solidity ^0.8.7;\n\ncontract Counter {\n\n    uint256 count;\n\n\n    constructor(uint256 _count){\n        count = _count;\n    }\n\n    function getCount() public view returns(uint256)  {\n        return count;\n    }\n\n    function add(uint256 x) public {\n        count += x;\n    }\n\n}",
  "sourcePath": "/Users/scy/WebstormProjects/web3/w1_2/contracts/Counter.sol",
  "compiler": {
    "name": "solc",
    "version": "0.8.19+commit.7dd6d404.Emscripten.clang"
  },
  "schemaVersion": "3.4.13",
  "updatedAt": "2023-04-19T14:56:33.370Z",
  "networkType": "ethereum",
  "devdoc": {
    "kind": "dev",
    "methods": {},
    "version": 1
  },
  "userdoc": {
    "kind": "user",
    "methods": {},
    "version": 1
  }
}